{
	"data": {
		"bytecode": {
			"linkReferences": {},
			"object": "6080604052600060085534801561001557600080fd5b506113d0806100256000396000f3fe60806040526004361061004a5760003560e01c8063015a01461461004f57806320b55a2d1461006b57806359511080146100965780638c65c81f146100bf57806397b2f556146100ff575b600080fd5b61006960048036038101906100649190610b75565b61012a565b005b34801561007757600080fd5b5061008061032e565b60405161008d9190610c12565b60405180910390f35b3480156100a257600080fd5b506100bd60048036038101906100b89190610c2d565b610354565b005b3480156100cb57600080fd5b506100e660048036038101906100e19190610d02565b6108fe565b6040516100f69493929190610d57565b60405180910390f35b34801561010b57600080fd5b50610114610954565b6040516101219190610d9c565b60405180910390f35b60026008541061016f576040517f08c379a000000000000000000000000000000000000000000000000000000000815260040161016690610e3a565b60405180910390fd5b67016345785d8a00003410156101ba576040517f08c379a00000000000000000000000000000000000000000000000000000000081526004016101b190610ecc565b60405180910390fd5b60005a9050600083836040516020016101d4929190610fa5565b604051602081830303815290604052805190602001209050600860008154809291906101ff90610ffc565b91905055503373ffffffffffffffffffffffffffffffffffffffff167f94f0046b8b4a6435e75c908857bca7559abb936de112f3716c4368920bb350778260405161024a9190611044565b60405180910390a260005a83610260919061105f565b905060405180608001604052803373ffffffffffffffffffffffffffffffffffffffff16815260200134815260200183815260200182815250600060016008546102aa919061105f565b600281106102bb576102ba611093565b5b6004020160008201518160000160006101000a81548173ffffffffffffffffffffffffffffffffffffffff021916908373ffffffffffffffffffffffffffffffffffffffff1602179055506020820151816001015560408201518160020155606082015181600301559050505050505050565b600960009054906101000a900473ffffffffffffffffffffffffffffffffffffffff1681565b60005a905060026008541461039e576040517f08c379a000000000000000000000000000000000000000000000000000000000815260040161039590611134565b60405180910390fd5b600085856040516020016103b3929190610fa5565b604051602081830303815290604052805190602001209050600084846040516020016103e0929190610fa5565b6040516020818303038152906040528051906020012090506000806002811061040c5761040b611093565b5b60040201600201548214610455576040517f08c379a000000000000000000000000000000000000000000000000000000000815260040161044c906111ec565b60405180910390fd5b600060016002811061046a57610469611093565b5b600402016002015481146104b3576040517f08c379a00000000000000000000000000000000000000000000000000000000081526004016104aa906112a4565b60405180910390fd5b5a836104bf919061105f565b60006001600281106104d4576104d3611093565b5b60040201600301819055506000806000808815158b15150361057a576000806002811061050457610503611093565b5b6004020160000160009054906101000a900473ffffffffffffffffffffffffffffffffffffffff16935060009150600060016002811061054757610546611093565b5b6004020160000160009054906101000a900473ffffffffffffffffffffffffffffffffffffffff16925060019050610600565b600060016002811061058f5761058e611093565b5b6004020160000160009054906101000a900473ffffffffffffffffffffffffffffffffffffffff16935060019150600080600281106105d1576105d0611093565b5b6004020160000160009054906101000a900473ffffffffffffffffffffffffffffffffffffffff169250600090505b60003a60008460ff166002811061061a57610619611093565b5b600402016003015461062c91906112c4565b3a60008460ff166002811061064457610643611093565b5b600402016003015461065691906112c4565b6106609190611306565b67016345785d8a0000610673919061105f565b905060006003826106849190611369565b905080600361069391906112c4565b9150600067016345785d8a000060008560ff16600281106106b7576106b6611093565b5b60040201600101546106c9919061105f565b905060003a60008760ff16600281106106e5576106e4611093565b5b60040201600301546106f791906112c4565b8460008860ff166002811061070f5761070e611093565b5b60040201600101546107219190611306565b61072b9190611306565b905033600960006101000a81548173ffffffffffffffffffffffffffffffffffffffff021916908373ffffffffffffffffffffffffffffffffffffffff160217905550600960009054906101000a900473ffffffffffffffffffffffffffffffffffffffff1673ffffffffffffffffffffffffffffffffffffffff166108fc849081150290604051600060405180830381858888f193505050501580156107d6573d6000803e3d6000fd5b508673ffffffffffffffffffffffffffffffffffffffff166108fc839081150290604051600060405180830381858888f1935050505015801561081d573d6000803e3d6000fd5b508773ffffffffffffffffffffffffffffffffffffffff166108fc479081150290604051600060405180830381858888f19350505050158015610864573d6000803e3d6000fd5b508773ffffffffffffffffffffffffffffffffffffffff167ff254aace0ef98d6ac1a0d84c95648f8e3f7a1881dbb43393709ecd004b00f103826040516108ab9190610d9c565b60405180910390a26000806108c0919061095a565b6000600881905550600960006101000a81549073ffffffffffffffffffffffffffffffffffffffff0219169055505050505050505050505050505050565b6000816002811061090e57600080fd5b600402016000915090508060000160009054906101000a900473ffffffffffffffffffffffffffffffffffffffff16908060010154908060020154908060030154905084565b60085481565b50600080820160006101000a81549073ffffffffffffffffffffffffffffffffffffffff021916905560018201600090556002820160009055600382016000905550600401600080820160006101000a81549073ffffffffffffffffffffffffffffffffffffffff02191690556001820160009055600282016000905560038201600090555050565b6000604051905090565b600080fd5b600080fd5b60008115159050919050565b610a0c816109f7565b8114610a1757600080fd5b50565b600081359050610a2981610a03565b92915050565b600080fd5b600080fd5b6000601f19601f8301169050919050565b7f4e487b7100000000000000000000000000000000000000000000000000000000600052604160045260246000fd5b610a8282610a39565b810181811067ffffffffffffffff82111715610aa157610aa0610a4a565b5b80604052505050565b6000610ab46109e3565b9050610ac08282610a79565b919050565b600067ffffffffffffffff821115610ae057610adf610a4a565b5b610ae982610a39565b9050602081019050919050565b82818337600083830152505050565b6000610b18610b1384610ac5565b610aaa565b905082815260208101848484011115610b3457610b33610a34565b5b610b3f848285610af6565b509392505050565b600082601f830112610b5c57610b5b610a2f565b5b8135610b6c848260208601610b05565b91505092915050565b60008060408385031215610b8c57610b8b6109ed565b5b6000610b9a85828601610a1a565b925050602083013567ffffffffffffffff811115610bbb57610bba6109f2565b5b610bc785828601610b47565b9150509250929050565b600073ffffffffffffffffffffffffffffffffffffffff82169050919050565b6000610bfc82610bd1565b9050919050565b610c0c81610bf1565b82525050565b6000602082019050610c276000830184610c03565b92915050565b60008060008060808587031215610c4757610c466109ed565b5b6000610c5587828801610a1a565b945050602085013567ffffffffffffffff811115610c7657610c756109f2565b5b610c8287828801610b47565b9350506040610c9387828801610a1a565b925050606085013567ffffffffffffffff811115610cb457610cb36109f2565b5b610cc087828801610b47565b91505092959194509250565b6000819050919050565b610cdf81610ccc565b8114610cea57600080fd5b50565b600081359050610cfc81610cd6565b92915050565b600060208284031215610d1857610d176109ed565b5b6000610d2684828501610ced565b91505092915050565b610d3881610ccc565b82525050565b6000819050919050565b610d5181610d3e565b82525050565b6000608082019050610d6c6000830187610c03565b610d796020830186610d2f565b610d866040830185610d48565b610d936060830184610d2f565b95945050505050565b6000602082019050610db16000830184610d2f565b92915050565b600082825260208201905092915050565b7f59612068617920646f73206a756761646f726573206573706572616e646f206160008201527f206c6120666173652064652052657665616c2e00000000000000000000000000602082015250565b6000610e24603383610db7565b9150610e2f82610dc8565b604082019050919050565b60006020820190508181036000830152610e5381610e17565b9050919050565b7f456c207320646562652073657220616c206d656e6f7320646520302e3120457460008201527f6865722e00000000000000000000000000000000000000000000000000000000602082015250565b6000610eb6602483610db7565b9150610ec182610e5a565b604082019050919050565b60006020820190508181036000830152610ee581610ea9565b9050919050565b60008160f81b9050919050565b6000610f0482610eec565b9050919050565b6000610f1682610ef9565b9050919050565b610f2e610f29826109f7565b610f0b565b82525050565b600081519050919050565b600081905092915050565b60005b83811015610f68578082015181840152602081019050610f4d565b60008484015250505050565b6000610f7f82610f34565b610f898185610f3f565b9350610f99818560208601610f4a565b80840191505092915050565b6000610fb18285610f1d565b600182019150610fc18284610f74565b91508190509392505050565b7f4e487b7100000000000000000000000000000000000000000000000000000000600052601160045260246000fd5b600061100782610ccc565b91507fffffffffffffffffffffffffffffffffffffffffffffffffffffffffffffffff820361103957611038610fcd565b5b600182019050919050565b60006020820190506110596000830184610d48565b92915050565b600061106a82610ccc565b915061107583610ccc565b925082820390508181111561108d5761108c610fcd565b5b92915050565b7f4e487b7100000000000000000000000000000000000000000000000000000000600052603260045260246000fd5b7f53652072657175696572656e20646f73206a756761646f72657320706172612060008201527f6c6120666173652064652052657665616c2e0000000000000000000000000000602082015250565b600061111e603283610db7565b9150611129826110c2565b604082019050919050565b6000602082019050818103600083015261114d81611111565b9050919050565b7f4c6120732079207320696e6772657361646173207061726120656c204a75676160008201527f646f722031206e6f20636f696e636964656e20636f6e20656c20636f6d70726f60208201527f6d69736f2e000000000000000000000000000000000000000000000000000000604082015250565b60006111d6604583610db7565b91506111e182611154565b606082019050919050565b60006020820190508181036000830152611205816111c9565b9050919050565b7f4c6120732079207320696e6772657361646173207061726120656c204a75676160008201527f646f722032206e6f20636f696e636964656e20636f6e20656c20636f6d70726f60208201527f6d69736f2e000000000000000000000000000000000000000000000000000000604082015250565b600061128e604583610db7565b91506112998261120c565b606082019050919050565b600060208201905081810360008301526112bd81611281565b9050919050565b60006112cf82610ccc565b91506112da83610ccc565b92508282026112e881610ccc565b915082820484148315176112ff576112fe610fcd565b5b5092915050565b600061131182610ccc565b915061131c83610ccc565b925082820190508082111561133457611333610fcd565b5b92915050565b7f4e487b7100000000000000000000000000000000000000000000000000000000600052601260045260246000fd5b600061137482610ccc565b915061137f83610ccc565b92508261138f5761138e61133a565b5b82820490509291505056fea2646970667358221220eede002da7c2981e49358b96ea91b78a573d6b4c4cde25278cc4b70edc149cef64736f6c63430008120033",
			"opcodes": "PUSH1 0x80 PUSH1 0x40 MSTORE PUSH1 0x0 PUSH1 0x8 SSTORE CALLVALUE DUP1 ISZERO PUSH2 0x15 JUMPI PUSH1 0x0 DUP1 REVERT JUMPDEST POP PUSH2 0x13D0 DUP1 PUSH2 0x25 PUSH1 0x0 CODECOPY PUSH1 0x0 RETURN INVALID PUSH1 0x80 PUSH1 0x40 MSTORE PUSH1 0x4 CALLDATASIZE LT PUSH2 0x4A JUMPI PUSH1 0x0 CALLDATALOAD PUSH1 0xE0 SHR DUP1 PUSH4 0x15A0146 EQ PUSH2 0x4F JUMPI DUP1 PUSH4 0x20B55A2D EQ PUSH2 0x6B JUMPI DUP1 PUSH4 0x59511080 EQ PUSH2 0x96 JUMPI DUP1 PUSH4 0x8C65C81F EQ PUSH2 0xBF JUMPI DUP1 PUSH4 0x97B2F556 EQ PUSH2 0xFF JUMPI JUMPDEST PUSH1 0x0 DUP1 REVERT JUMPDEST PUSH2 0x69 PUSH1 0x4 DUP1 CALLDATASIZE SUB DUP2 ADD SWAP1 PUSH2 0x64 SWAP2 SWAP1 PUSH2 0xB75 JUMP JUMPDEST PUSH2 0x12A JUMP JUMPDEST STOP JUMPDEST CALLVALUE DUP1 ISZERO PUSH2 0x77 JUMPI PUSH1 0x0 DUP1 REVERT JUMPDEST POP PUSH2 0x80 PUSH2 0x32E JUMP JUMPDEST PUSH1 0x40 MLOAD PUSH2 0x8D SWAP2 SWAP1 PUSH2 0xC12 JUMP JUMPDEST PUSH1 0x40 MLOAD DUP1 SWAP2 SUB SWAP1 RETURN JUMPDEST CALLVALUE DUP1 ISZERO PUSH2 0xA2 JUMPI PUSH1 0x0 DUP1 REVERT JUMPDEST POP PUSH2 0xBD PUSH1 0x4 DUP1 CALLDATASIZE SUB DUP2 ADD SWAP1 PUSH2 0xB8 SWAP2 SWAP1 PUSH2 0xC2D JUMP JUMPDEST PUSH2 0x354 JUMP JUMPDEST STOP JUMPDEST CALLVALUE DUP1 ISZERO PUSH2 0xCB JUMPI PUSH1 0x0 DUP1 REVERT JUMPDEST POP PUSH2 0xE6 PUSH1 0x4 DUP1 CALLDATASIZE SUB DUP2 ADD SWAP1 PUSH2 0xE1 SWAP2 SWAP1 PUSH2 0xD02 JUMP JUMPDEST PUSH2 0x8FE JUMP JUMPDEST PUSH1 0x40 MLOAD PUSH2 0xF6 SWAP5 SWAP4 SWAP3 SWAP2 SWAP1 PUSH2 0xD57 JUMP JUMPDEST PUSH1 0x40 MLOAD DUP1 SWAP2 SUB SWAP1 RETURN JUMPDEST CALLVALUE DUP1 ISZERO PUSH2 0x10B JUMPI PUSH1 0x0 DUP1 REVERT JUMPDEST POP PUSH2 0x114 PUSH2 0x954 JUMP JUMPDEST PUSH1 0x40 MLOAD PUSH2 0x121 SWAP2 SWAP1 PUSH2 0xD9C JUMP JUMPDEST PUSH1 0x40 MLOAD DUP1 SWAP2 SUB SWAP1 RETURN JUMPDEST PUSH1 0x2 PUSH1 0x8 SLOAD LT PUSH2 0x16F JUMPI PUSH1 0x40 MLOAD PUSH32 0x8C379A000000000000000000000000000000000000000000000000000000000 DUP2 MSTORE PUSH1 0x4 ADD PUSH2 0x166 SWAP1 PUSH2 0xE3A JUMP JUMPDEST PUSH1 0x40 MLOAD DUP1 SWAP2 SUB SWAP1 REVERT JUMPDEST PUSH8 0x16345785D8A0000 CALLVALUE LT ISZERO PUSH2 0x1BA JUMPI PUSH1 0x40 MLOAD PUSH32 0x8C379A000000000000000000000000000000000000000000000000000000000 DUP2 MSTORE PUSH1 0x4 ADD PUSH2 0x1B1 SWAP1 PUSH2 0xECC JUMP JUMPDEST PUSH1 0x40 MLOAD DUP1 SWAP2 SUB SWAP1 REVERT JUMPDEST PUSH1 0x0 GAS SWAP1 POP PUSH1 0x0 DUP4 DUP4 PUSH1 0x40 MLOAD PUSH1 0x20 ADD PUSH2 0x1D4 SWAP3 SWAP2 SWAP1 PUSH2 0xFA5 JUMP JUMPDEST PUSH1 0x40 MLOAD PUSH1 0x20 DUP2 DUP4 SUB SUB DUP2 MSTORE SWAP1 PUSH1 0x40 MSTORE DUP1 MLOAD SWAP1 PUSH1 0x20 ADD KECCAK256 SWAP1 POP PUSH1 0x8 PUSH1 0x0 DUP2 SLOAD DUP1 SWAP3 SWAP2 SWAP1 PUSH2 0x1FF SWAP1 PUSH2 0xFFC JUMP JUMPDEST SWAP2 SWAP1 POP SSTORE POP CALLER PUSH20 0xFFFFFFFFFFFFFFFFFFFFFFFFFFFFFFFFFFFFFFFF AND PUSH32 0x94F0046B8B4A6435E75C908857BCA7559ABB936DE112F3716C4368920BB35077 DUP3 PUSH1 0x40 MLOAD PUSH2 0x24A SWAP2 SWAP1 PUSH2 0x1044 JUMP JUMPDEST PUSH1 0x40 MLOAD DUP1 SWAP2 SUB SWAP1 LOG2 PUSH1 0x0 GAS DUP4 PUSH2 0x260 SWAP2 SWAP1 PUSH2 0x105F JUMP JUMPDEST SWAP1 POP PUSH1 0x40 MLOAD DUP1 PUSH1 0x80 ADD PUSH1 0x40 MSTORE DUP1 CALLER PUSH20 0xFFFFFFFFFFFFFFFFFFFFFFFFFFFFFFFFFFFFFFFF AND DUP2 MSTORE PUSH1 0x20 ADD CALLVALUE DUP2 MSTORE PUSH1 0x20 ADD DUP4 DUP2 MSTORE PUSH1 0x20 ADD DUP3 DUP2 MSTORE POP PUSH1 0x0 PUSH1 0x1 PUSH1 0x8 SLOAD PUSH2 0x2AA SWAP2 SWAP1 PUSH2 0x105F JUMP JUMPDEST PUSH1 0x2 DUP2 LT PUSH2 0x2BB JUMPI PUSH2 0x2BA PUSH2 0x1093 JUMP JUMPDEST JUMPDEST PUSH1 0x4 MUL ADD PUSH1 0x0 DUP3 ADD MLOAD DUP2 PUSH1 0x0 ADD PUSH1 0x0 PUSH2 0x100 EXP DUP2 SLOAD DUP2 PUSH20 0xFFFFFFFFFFFFFFFFFFFFFFFFFFFFFFFFFFFFFFFF MUL NOT AND SWAP1 DUP4 PUSH20 0xFFFFFFFFFFFFFFFFFFFFFFFFFFFFFFFFFFFFFFFF AND MUL OR SWAP1 SSTORE POP PUSH1 0x20 DUP3 ADD MLOAD DUP2 PUSH1 0x1 ADD SSTORE PUSH1 0x40 DUP3 ADD MLOAD DUP2 PUSH1 0x2 ADD SSTORE PUSH1 0x60 DUP3 ADD MLOAD DUP2 PUSH1 0x3 ADD SSTORE SWAP1 POP POP POP POP POP POP POP JUMP JUMPDEST PUSH1 0x9 PUSH1 0x0 SWAP1 SLOAD SWAP1 PUSH2 0x100 EXP SWAP1 DIV PUSH20 0xFFFFFFFFFFFFFFFFFFFFFFFFFFFFFFFFFFFFFFFF AND DUP2 JUMP JUMPDEST PUSH1 0x0 GAS SWAP1 POP PUSH1 0x2 PUSH1 0x8 SLOAD EQ PUSH2 0x39E JUMPI PUSH1 0x40 MLOAD PUSH32 0x8C379A000000000000000000000000000000000000000000000000000000000 DUP2 MSTORE PUSH1 0x4 ADD PUSH2 0x395 SWAP1 PUSH2 0x1134 JUMP JUMPDEST PUSH1 0x40 MLOAD DUP1 SWAP2 SUB SWAP1 REVERT JUMPDEST PUSH1 0x0 DUP6 DUP6 PUSH1 0x40 MLOAD PUSH1 0x20 ADD PUSH2 0x3B3 SWAP3 SWAP2 SWAP1 PUSH2 0xFA5 JUMP JUMPDEST PUSH1 0x40 MLOAD PUSH1 0x20 DUP2 DUP4 SUB SUB DUP2 MSTORE SWAP1 PUSH1 0x40 MSTORE DUP1 MLOAD SWAP1 PUSH1 0x20 ADD KECCAK256 SWAP1 POP PUSH1 0x0 DUP5 DUP5 PUSH1 0x40 MLOAD PUSH1 0x20 ADD PUSH2 0x3E0 SWAP3 SWAP2 SWAP1 PUSH2 0xFA5 JUMP JUMPDEST PUSH1 0x40 MLOAD PUSH1 0x20 DUP2 DUP4 SUB SUB DUP2 MSTORE SWAP1 PUSH1 0x40 MSTORE DUP1 MLOAD SWAP1 PUSH1 0x20 ADD KECCAK256 SWAP1 POP PUSH1 0x0 DUP1 PUSH1 0x2 DUP2 LT PUSH2 0x40C JUMPI PUSH2 0x40B PUSH2 0x1093 JUMP JUMPDEST JUMPDEST PUSH1 0x4 MUL ADD PUSH1 0x2 ADD SLOAD DUP3 EQ PUSH2 0x455 JUMPI PUSH1 0x40 MLOAD PUSH32 0x8C379A000000000000000000000000000000000000000000000000000000000 DUP2 MSTORE PUSH1 0x4 ADD PUSH2 0x44C SWAP1 PUSH2 0x11EC JUMP JUMPDEST PUSH1 0x40 MLOAD DUP1 SWAP2 SUB SWAP1 REVERT JUMPDEST PUSH1 0x0 PUSH1 0x1 PUSH1 0x2 DUP2 LT PUSH2 0x46A JUMPI PUSH2 0x469 PUSH2 0x1093 JUMP JUMPDEST JUMPDEST PUSH1 0x4 MUL ADD PUSH1 0x2 ADD SLOAD DUP2 EQ PUSH2 0x4B3 JUMPI PUSH1 0x40 MLOAD PUSH32 0x8C379A000000000000000000000000000000000000000000000000000000000 DUP2 MSTORE PUSH1 0x4 ADD PUSH2 0x4AA SWAP1 PUSH2 0x12A4 JUMP JUMPDEST PUSH1 0x40 MLOAD DUP1 SWAP2 SUB SWAP1 REVERT JUMPDEST GAS DUP4 PUSH2 0x4BF SWAP2 SWAP1 PUSH2 0x105F JUMP JUMPDEST PUSH1 0x0 PUSH1 0x1 PUSH1 0x2 DUP2 LT PUSH2 0x4D4 JUMPI PUSH2 0x4D3 PUSH2 0x1093 JUMP JUMPDEST JUMPDEST PUSH1 0x4 MUL ADD PUSH1 0x3 ADD DUP2 SWAP1 SSTORE POP PUSH1 0x0 DUP1 PUSH1 0x0 DUP1 DUP9 ISZERO ISZERO DUP12 ISZERO ISZERO SUB PUSH2 0x57A JUMPI PUSH1 0x0 DUP1 PUSH1 0x2 DUP2 LT PUSH2 0x504 JUMPI PUSH2 0x503 PUSH2 0x1093 JUMP JUMPDEST JUMPDEST PUSH1 0x4 MUL ADD PUSH1 0x0 ADD PUSH1 0x0 SWAP1 SLOAD SWAP1 PUSH2 0x100 EXP SWAP1 DIV PUSH20 0xFFFFFFFFFFFFFFFFFFFFFFFFFFFFFFFFFFFFFFFF AND SWAP4 POP PUSH1 0x0 SWAP2 POP PUSH1 0x0 PUSH1 0x1 PUSH1 0x2 DUP2 LT PUSH2 0x547 JUMPI PUSH2 0x546 PUSH2 0x1093 JUMP JUMPDEST JUMPDEST PUSH1 0x4 MUL ADD PUSH1 0x0 ADD PUSH1 0x0 SWAP1 SLOAD SWAP1 PUSH2 0x100 EXP SWAP1 DIV PUSH20 0xFFFFFFFFFFFFFFFFFFFFFFFFFFFFFFFFFFFFFFFF AND SWAP3 POP PUSH1 0x1 SWAP1 POP PUSH2 0x600 JUMP JUMPDEST PUSH1 0x0 PUSH1 0x1 PUSH1 0x2 DUP2 LT PUSH2 0x58F JUMPI PUSH2 0x58E PUSH2 0x1093 JUMP JUMPDEST JUMPDEST PUSH1 0x4 MUL ADD PUSH1 0x0 ADD PUSH1 0x0 SWAP1 SLOAD SWAP1 PUSH2 0x100 EXP SWAP1 DIV PUSH20 0xFFFFFFFFFFFFFFFFFFFFFFFFFFFFFFFFFFFFFFFF AND SWAP4 POP PUSH1 0x1 SWAP2 POP PUSH1 0x0 DUP1 PUSH1 0x2 DUP2 LT PUSH2 0x5D1 JUMPI PUSH2 0x5D0 PUSH2 0x1093 JUMP JUMPDEST JUMPDEST PUSH1 0x4 MUL ADD PUSH1 0x0 ADD PUSH1 0x0 SWAP1 SLOAD SWAP1 PUSH2 0x100 EXP SWAP1 DIV PUSH20 0xFFFFFFFFFFFFFFFFFFFFFFFFFFFFFFFFFFFFFFFF AND SWAP3 POP PUSH1 0x0 SWAP1 POP JUMPDEST PUSH1 0x0 GASPRICE PUSH1 0x0 DUP5 PUSH1 0xFF AND PUSH1 0x2 DUP2 LT PUSH2 0x61A JUMPI PUSH2 0x619 PUSH2 0x1093 JUMP JUMPDEST JUMPDEST PUSH1 0x4 MUL ADD PUSH1 0x3 ADD SLOAD PUSH2 0x62C SWAP2 SWAP1 PUSH2 0x12C4 JUMP JUMPDEST GASPRICE PUSH1 0x0 DUP5 PUSH1 0xFF AND PUSH1 0x2 DUP2 LT PUSH2 0x644 JUMPI PUSH2 0x643 PUSH2 0x1093 JUMP JUMPDEST JUMPDEST PUSH1 0x4 MUL ADD PUSH1 0x3 ADD SLOAD PUSH2 0x656 SWAP2 SWAP1 PUSH2 0x12C4 JUMP JUMPDEST PUSH2 0x660 SWAP2 SWAP1 PUSH2 0x1306 JUMP JUMPDEST PUSH8 0x16345785D8A0000 PUSH2 0x673 SWAP2 SWAP1 PUSH2 0x105F JUMP JUMPDEST SWAP1 POP PUSH1 0x0 PUSH1 0x3 DUP3 PUSH2 0x684 SWAP2 SWAP1 PUSH2 0x1369 JUMP JUMPDEST SWAP1 POP DUP1 PUSH1 0x3 PUSH2 0x693 SWAP2 SWAP1 PUSH2 0x12C4 JUMP JUMPDEST SWAP2 POP PUSH1 0x0 PUSH8 0x16345785D8A0000 PUSH1 0x0 DUP6 PUSH1 0xFF AND PUSH1 0x2 DUP2 LT PUSH2 0x6B7 JUMPI PUSH2 0x6B6 PUSH2 0x1093 JUMP JUMPDEST JUMPDEST PUSH1 0x4 MUL ADD PUSH1 0x1 ADD SLOAD PUSH2 0x6C9 SWAP2 SWAP1 PUSH2 0x105F JUMP JUMPDEST SWAP1 POP PUSH1 0x0 GASPRICE PUSH1 0x0 DUP8 PUSH1 0xFF AND PUSH1 0x2 DUP2 LT PUSH2 0x6E5 JUMPI PUSH2 0x6E4 PUSH2 0x1093 JUMP JUMPDEST JUMPDEST PUSH1 0x4 MUL ADD PUSH1 0x3 ADD SLOAD PUSH2 0x6F7 SWAP2 SWAP1 PUSH2 0x12C4 JUMP JUMPDEST DUP5 PUSH1 0x0 DUP9 PUSH1 0xFF AND PUSH1 0x2 DUP2 LT PUSH2 0x70F JUMPI PUSH2 0x70E PUSH2 0x1093 JUMP JUMPDEST JUMPDEST PUSH1 0x4 MUL ADD PUSH1 0x1 ADD SLOAD PUSH2 0x721 SWAP2 SWAP1 PUSH2 0x1306 JUMP JUMPDEST PUSH2 0x72B SWAP2 SWAP1 PUSH2 0x1306 JUMP JUMPDEST SWAP1 POP CALLER PUSH1 0x9 PUSH1 0x0 PUSH2 0x100 EXP DUP2 SLOAD DUP2 PUSH20 0xFFFFFFFFFFFFFFFFFFFFFFFFFFFFFFFFFFFFFFFF MUL NOT AND SWAP1 DUP4 PUSH20 0xFFFFFFFFFFFFFFFFFFFFFFFFFFFFFFFFFFFFFFFF AND MUL OR SWAP1 SSTORE POP PUSH1 0x9 PUSH1 0x0 SWAP1 SLOAD SWAP1 PUSH2 0x100 EXP SWAP1 DIV PUSH20 0xFFFFFFFFFFFFFFFFFFFFFFFFFFFFFFFFFFFFFFFF AND PUSH20 0xFFFFFFFFFFFFFFFFFFFFFFFFFFFFFFFFFFFFFFFF AND PUSH2 0x8FC DUP5 SWAP1 DUP2 ISZERO MUL SWAP1 PUSH1 0x40 MLOAD PUSH1 0x0 PUSH1 0x40 MLOAD DUP1 DUP4 SUB DUP2 DUP6 DUP9 DUP9 CALL SWAP4 POP POP POP POP ISZERO DUP1 ISZERO PUSH2 0x7D6 JUMPI RETURNDATASIZE PUSH1 0x0 DUP1 RETURNDATACOPY RETURNDATASIZE PUSH1 0x0 REVERT JUMPDEST POP DUP7 PUSH20 0xFFFFFFFFFFFFFFFFFFFFFFFFFFFFFFFFFFFFFFFF AND PUSH2 0x8FC DUP4 SWAP1 DUP2 ISZERO MUL SWAP1 PUSH1 0x40 MLOAD PUSH1 0x0 PUSH1 0x40 MLOAD DUP1 DUP4 SUB DUP2 DUP6 DUP9 DUP9 CALL SWAP4 POP POP POP POP ISZERO DUP1 ISZERO PUSH2 0x81D JUMPI RETURNDATASIZE PUSH1 0x0 DUP1 RETURNDATACOPY RETURNDATASIZE PUSH1 0x0 REVERT JUMPDEST POP DUP8 PUSH20 0xFFFFFFFFFFFFFFFFFFFFFFFFFFFFFFFFFFFFFFFF AND PUSH2 0x8FC SELFBALANCE SWAP1 DUP2 ISZERO MUL SWAP1 PUSH1 0x40 MLOAD PUSH1 0x0 PUSH1 0x40 MLOAD DUP1 DUP4 SUB DUP2 DUP6 DUP9 DUP9 CALL SWAP4 POP POP POP POP ISZERO DUP1 ISZERO PUSH2 0x864 JUMPI RETURNDATASIZE PUSH1 0x0 DUP1 RETURNDATACOPY RETURNDATASIZE PUSH1 0x0 REVERT JUMPDEST POP DUP8 PUSH20 0xFFFFFFFFFFFFFFFFFFFFFFFFFFFFFFFFFFFFFFFF AND PUSH32 0xF254AACE0EF98D6AC1A0D84C95648F8E3F7A1881DBB43393709ECD004B00F103 DUP3 PUSH1 0x40 MLOAD PUSH2 0x8AB SWAP2 SWAP1 PUSH2 0xD9C JUMP JUMPDEST PUSH1 0x40 MLOAD DUP1 SWAP2 SUB SWAP1 LOG2 PUSH1 0x0 DUP1 PUSH2 0x8C0 SWAP2 SWAP1 PUSH2 0x95A JUMP JUMPDEST PUSH1 0x0 PUSH1 0x8 DUP2 SWAP1 SSTORE POP PUSH1 0x9 PUSH1 0x0 PUSH2 0x100 EXP DUP2 SLOAD SWAP1 PUSH20 0xFFFFFFFFFFFFFFFFFFFFFFFFFFFFFFFFFFFFFFFF MUL NOT AND SWAP1 SSTORE POP POP POP POP POP POP POP POP POP POP POP POP POP POP POP JUMP JUMPDEST PUSH1 0x0 DUP2 PUSH1 0x2 DUP2 LT PUSH2 0x90E JUMPI PUSH1 0x0 DUP1 REVERT JUMPDEST PUSH1 0x4 MUL ADD PUSH1 0x0 SWAP2 POP SWAP1 POP DUP1 PUSH1 0x0 ADD PUSH1 0x0 SWAP1 SLOAD SWAP1 PUSH2 0x100 EXP SWAP1 DIV PUSH20 0xFFFFFFFFFFFFFFFFFFFFFFFFFFFFFFFFFFFFFFFF AND SWAP1 DUP1 PUSH1 0x1 ADD SLOAD SWAP1 DUP1 PUSH1 0x2 ADD SLOAD SWAP1 DUP1 PUSH1 0x3 ADD SLOAD SWAP1 POP DUP5 JUMP JUMPDEST PUSH1 0x8 SLOAD DUP2 JUMP JUMPDEST POP PUSH1 0x0 DUP1 DUP3 ADD PUSH1 0x0 PUSH2 0x100 EXP DUP2 SLOAD SWAP1 PUSH20 0xFFFFFFFFFFFFFFFFFFFFFFFFFFFFFFFFFFFFFFFF MUL NOT AND SWAP1 SSTORE PUSH1 0x1 DUP3 ADD PUSH1 0x0 SWAP1 SSTORE PUSH1 0x2 DUP3 ADD PUSH1 0x0 SWAP1 SSTORE PUSH1 0x3 DUP3 ADD PUSH1 0x0 SWAP1 SSTORE POP PUSH1 0x4 ADD PUSH1 0x0 DUP1 DUP3 ADD PUSH1 0x0 PUSH2 0x100 EXP DUP2 SLOAD SWAP1 PUSH20 0xFFFFFFFFFFFFFFFFFFFFFFFFFFFFFFFFFFFFFFFF MUL NOT AND SWAP1 SSTORE PUSH1 0x1 DUP3 ADD PUSH1 0x0 SWAP1 SSTORE PUSH1 0x2 DUP3 ADD PUSH1 0x0 SWAP1 SSTORE PUSH1 0x3 DUP3 ADD PUSH1 0x0 SWAP1 SSTORE POP POP JUMP JUMPDEST PUSH1 0x0 PUSH1 0x40 MLOAD SWAP1 POP SWAP1 JUMP JUMPDEST PUSH1 0x0 DUP1 REVERT JUMPDEST PUSH1 0x0 DUP1 REVERT JUMPDEST PUSH1 0x0 DUP2 ISZERO ISZERO SWAP1 POP SWAP2 SWAP1 POP JUMP JUMPDEST PUSH2 0xA0C DUP2 PUSH2 0x9F7 JUMP JUMPDEST DUP2 EQ PUSH2 0xA17 JUMPI PUSH1 0x0 DUP1 REVERT JUMPDEST POP JUMP JUMPDEST PUSH1 0x0 DUP2 CALLDATALOAD SWAP1 POP PUSH2 0xA29 DUP2 PUSH2 0xA03 JUMP JUMPDEST SWAP3 SWAP2 POP POP JUMP JUMPDEST PUSH1 0x0 DUP1 REVERT JUMPDEST PUSH1 0x0 DUP1 REVERT JUMPDEST PUSH1 0x0 PUSH1 0x1F NOT PUSH1 0x1F DUP4 ADD AND SWAP1 POP SWAP2 SWAP1 POP JUMP JUMPDEST PUSH32 0x4E487B7100000000000000000000000000000000000000000000000000000000 PUSH1 0x0 MSTORE PUSH1 0x41 PUSH1 0x4 MSTORE PUSH1 0x24 PUSH1 0x0 REVERT JUMPDEST PUSH2 0xA82 DUP3 PUSH2 0xA39 JUMP JUMPDEST DUP2 ADD DUP2 DUP2 LT PUSH8 0xFFFFFFFFFFFFFFFF DUP3 GT OR ISZERO PUSH2 0xAA1 JUMPI PUSH2 0xAA0 PUSH2 0xA4A JUMP JUMPDEST JUMPDEST DUP1 PUSH1 0x40 MSTORE POP POP POP JUMP JUMPDEST PUSH1 0x0 PUSH2 0xAB4 PUSH2 0x9E3 JUMP JUMPDEST SWAP1 POP PUSH2 0xAC0 DUP3 DUP3 PUSH2 0xA79 JUMP JUMPDEST SWAP2 SWAP1 POP JUMP JUMPDEST PUSH1 0x0 PUSH8 0xFFFFFFFFFFFFFFFF DUP3 GT ISZERO PUSH2 0xAE0 JUMPI PUSH2 0xADF PUSH2 0xA4A JUMP JUMPDEST JUMPDEST PUSH2 0xAE9 DUP3 PUSH2 0xA39 JUMP JUMPDEST SWAP1 POP PUSH1 0x20 DUP2 ADD SWAP1 POP SWAP2 SWAP1 POP JUMP JUMPDEST DUP3 DUP2 DUP4 CALLDATACOPY PUSH1 0x0 DUP4 DUP4 ADD MSTORE POP POP POP JUMP JUMPDEST PUSH1 0x0 PUSH2 0xB18 PUSH2 0xB13 DUP5 PUSH2 0xAC5 JUMP JUMPDEST PUSH2 0xAAA JUMP JUMPDEST SWAP1 POP DUP3 DUP2 MSTORE PUSH1 0x20 DUP2 ADD DUP5 DUP5 DUP5 ADD GT ISZERO PUSH2 0xB34 JUMPI PUSH2 0xB33 PUSH2 0xA34 JUMP JUMPDEST JUMPDEST PUSH2 0xB3F DUP5 DUP3 DUP6 PUSH2 0xAF6 JUMP JUMPDEST POP SWAP4 SWAP3 POP POP POP JUMP JUMPDEST PUSH1 0x0 DUP3 PUSH1 0x1F DUP4 ADD SLT PUSH2 0xB5C JUMPI PUSH2 0xB5B PUSH2 0xA2F JUMP JUMPDEST JUMPDEST DUP2 CALLDATALOAD PUSH2 0xB6C DUP5 DUP3 PUSH1 0x20 DUP7 ADD PUSH2 0xB05 JUMP JUMPDEST SWAP2 POP POP SWAP3 SWAP2 POP POP JUMP JUMPDEST PUSH1 0x0 DUP1 PUSH1 0x40 DUP4 DUP6 SUB SLT ISZERO PUSH2 0xB8C JUMPI PUSH2 0xB8B PUSH2 0x9ED JUMP JUMPDEST JUMPDEST PUSH1 0x0 PUSH2 0xB9A DUP6 DUP3 DUP7 ADD PUSH2 0xA1A JUMP JUMPDEST SWAP3 POP POP PUSH1 0x20 DUP4 ADD CALLDATALOAD PUSH8 0xFFFFFFFFFFFFFFFF DUP2 GT ISZERO PUSH2 0xBBB JUMPI PUSH2 0xBBA PUSH2 0x9F2 JUMP JUMPDEST JUMPDEST PUSH2 0xBC7 DUP6 DUP3 DUP7 ADD PUSH2 0xB47 JUMP JUMPDEST SWAP2 POP POP SWAP3 POP SWAP3 SWAP1 POP JUMP JUMPDEST PUSH1 0x0 PUSH20 0xFFFFFFFFFFFFFFFFFFFFFFFFFFFFFFFFFFFFFFFF DUP3 AND SWAP1 POP SWAP2 SWAP1 POP JUMP JUMPDEST PUSH1 0x0 PUSH2 0xBFC DUP3 PUSH2 0xBD1 JUMP JUMPDEST SWAP1 POP SWAP2 SWAP1 POP JUMP JUMPDEST PUSH2 0xC0C DUP2 PUSH2 0xBF1 JUMP JUMPDEST DUP3 MSTORE POP POP JUMP JUMPDEST PUSH1 0x0 PUSH1 0x20 DUP3 ADD SWAP1 POP PUSH2 0xC27 PUSH1 0x0 DUP4 ADD DUP5 PUSH2 0xC03 JUMP JUMPDEST SWAP3 SWAP2 POP POP JUMP JUMPDEST PUSH1 0x0 DUP1 PUSH1 0x0 DUP1 PUSH1 0x80 DUP6 DUP8 SUB SLT ISZERO PUSH2 0xC47 JUMPI PUSH2 0xC46 PUSH2 0x9ED JUMP JUMPDEST JUMPDEST PUSH1 0x0 PUSH2 0xC55 DUP8 DUP3 DUP9 ADD PUSH2 0xA1A JUMP JUMPDEST SWAP5 POP POP PUSH1 0x20 DUP6 ADD CALLDATALOAD PUSH8 0xFFFFFFFFFFFFFFFF DUP2 GT ISZERO PUSH2 0xC76 JUMPI PUSH2 0xC75 PUSH2 0x9F2 JUMP JUMPDEST JUMPDEST PUSH2 0xC82 DUP8 DUP3 DUP9 ADD PUSH2 0xB47 JUMP JUMPDEST SWAP4 POP POP PUSH1 0x40 PUSH2 0xC93 DUP8 DUP3 DUP9 ADD PUSH2 0xA1A JUMP JUMPDEST SWAP3 POP POP PUSH1 0x60 DUP6 ADD CALLDATALOAD PUSH8 0xFFFFFFFFFFFFFFFF DUP2 GT ISZERO PUSH2 0xCB4 JUMPI PUSH2 0xCB3 PUSH2 0x9F2 JUMP JUMPDEST JUMPDEST PUSH2 0xCC0 DUP8 DUP3 DUP9 ADD PUSH2 0xB47 JUMP JUMPDEST SWAP2 POP POP SWAP3 SWAP6 SWAP2 SWAP5 POP SWAP3 POP JUMP JUMPDEST PUSH1 0x0 DUP2 SWAP1 POP SWAP2 SWAP1 POP JUMP JUMPDEST PUSH2 0xCDF DUP2 PUSH2 0xCCC JUMP JUMPDEST DUP2 EQ PUSH2 0xCEA JUMPI PUSH1 0x0 DUP1 REVERT JUMPDEST POP JUMP JUMPDEST PUSH1 0x0 DUP2 CALLDATALOAD SWAP1 POP PUSH2 0xCFC DUP2 PUSH2 0xCD6 JUMP JUMPDEST SWAP3 SWAP2 POP POP JUMP JUMPDEST PUSH1 0x0 PUSH1 0x20 DUP3 DUP5 SUB SLT ISZERO PUSH2 0xD18 JUMPI PUSH2 0xD17 PUSH2 0x9ED JUMP JUMPDEST JUMPDEST PUSH1 0x0 PUSH2 0xD26 DUP5 DUP3 DUP6 ADD PUSH2 0xCED JUMP JUMPDEST SWAP2 POP POP SWAP3 SWAP2 POP POP JUMP JUMPDEST PUSH2 0xD38 DUP2 PUSH2 0xCCC JUMP JUMPDEST DUP3 MSTORE POP POP JUMP JUMPDEST PUSH1 0x0 DUP2 SWAP1 POP SWAP2 SWAP1 POP JUMP JUMPDEST PUSH2 0xD51 DUP2 PUSH2 0xD3E JUMP JUMPDEST DUP3 MSTORE POP POP JUMP JUMPDEST PUSH1 0x0 PUSH1 0x80 DUP3 ADD SWAP1 POP PUSH2 0xD6C PUSH1 0x0 DUP4 ADD DUP8 PUSH2 0xC03 JUMP JUMPDEST PUSH2 0xD79 PUSH1 0x20 DUP4 ADD DUP7 PUSH2 0xD2F JUMP JUMPDEST PUSH2 0xD86 PUSH1 0x40 DUP4 ADD DUP6 PUSH2 0xD48 JUMP JUMPDEST PUSH2 0xD93 PUSH1 0x60 DUP4 ADD DUP5 PUSH2 0xD2F JUMP JUMPDEST SWAP6 SWAP5 POP POP POP POP POP JUMP JUMPDEST PUSH1 0x0 PUSH1 0x20 DUP3 ADD SWAP1 POP PUSH2 0xDB1 PUSH1 0x0 DUP4 ADD DUP5 PUSH2 0xD2F JUMP JUMPDEST SWAP3 SWAP2 POP POP JUMP JUMPDEST PUSH1 0x0 DUP3 DUP3 MSTORE PUSH1 0x20 DUP3 ADD SWAP1 POP SWAP3 SWAP2 POP POP JUMP JUMPDEST PUSH32 0x59612068617920646F73206A756761646F726573206573706572616E646F2061 PUSH1 0x0 DUP3 ADD MSTORE PUSH32 0x206C6120666173652064652052657665616C2E00000000000000000000000000 PUSH1 0x20 DUP3 ADD MSTORE POP JUMP JUMPDEST PUSH1 0x0 PUSH2 0xE24 PUSH1 0x33 DUP4 PUSH2 0xDB7 JUMP JUMPDEST SWAP2 POP PUSH2 0xE2F DUP3 PUSH2 0xDC8 JUMP JUMPDEST PUSH1 0x40 DUP3 ADD SWAP1 POP SWAP2 SWAP1 POP JUMP JUMPDEST PUSH1 0x0 PUSH1 0x20 DUP3 ADD SWAP1 POP DUP2 DUP2 SUB PUSH1 0x0 DUP4 ADD MSTORE PUSH2 0xE53 DUP2 PUSH2 0xE17 JUMP JUMPDEST SWAP1 POP SWAP2 SWAP1 POP JUMP JUMPDEST PUSH32 0x456C207320646562652073657220616C206D656E6F7320646520302E31204574 PUSH1 0x0 DUP3 ADD MSTORE PUSH32 0x6865722E00000000000000000000000000000000000000000000000000000000 PUSH1 0x20 DUP3 ADD MSTORE POP JUMP JUMPDEST PUSH1 0x0 PUSH2 0xEB6 PUSH1 0x24 DUP4 PUSH2 0xDB7 JUMP JUMPDEST SWAP2 POP PUSH2 0xEC1 DUP3 PUSH2 0xE5A JUMP JUMPDEST PUSH1 0x40 DUP3 ADD SWAP1 POP SWAP2 SWAP1 POP JUMP JUMPDEST PUSH1 0x0 PUSH1 0x20 DUP3 ADD SWAP1 POP DUP2 DUP2 SUB PUSH1 0x0 DUP4 ADD MSTORE PUSH2 0xEE5 DUP2 PUSH2 0xEA9 JUMP JUMPDEST SWAP1 POP SWAP2 SWAP1 POP JUMP JUMPDEST PUSH1 0x0 DUP2 PUSH1 0xF8 SHL SWAP1 POP SWAP2 SWAP1 POP JUMP JUMPDEST PUSH1 0x0 PUSH2 0xF04 DUP3 PUSH2 0xEEC JUMP JUMPDEST SWAP1 POP SWAP2 SWAP1 POP JUMP JUMPDEST PUSH1 0x0 PUSH2 0xF16 DUP3 PUSH2 0xEF9 JUMP JUMPDEST SWAP1 POP SWAP2 SWAP1 POP JUMP JUMPDEST PUSH2 0xF2E PUSH2 0xF29 DUP3 PUSH2 0x9F7 JUMP JUMPDEST PUSH2 0xF0B JUMP JUMPDEST DUP3 MSTORE POP POP JUMP JUMPDEST PUSH1 0x0 DUP2 MLOAD SWAP1 POP SWAP2 SWAP1 POP JUMP JUMPDEST PUSH1 0x0 DUP2 SWAP1 POP SWAP3 SWAP2 POP POP JUMP JUMPDEST PUSH1 0x0 JUMPDEST DUP4 DUP2 LT ISZERO PUSH2 0xF68 JUMPI DUP1 DUP3 ADD MLOAD DUP2 DUP5 ADD MSTORE PUSH1 0x20 DUP2 ADD SWAP1 POP PUSH2 0xF4D JUMP JUMPDEST PUSH1 0x0 DUP5 DUP5 ADD MSTORE POP POP POP POP JUMP JUMPDEST PUSH1 0x0 PUSH2 0xF7F DUP3 PUSH2 0xF34 JUMP JUMPDEST PUSH2 0xF89 DUP2 DUP6 PUSH2 0xF3F JUMP JUMPDEST SWAP4 POP PUSH2 0xF99 DUP2 DUP6 PUSH1 0x20 DUP7 ADD PUSH2 0xF4A JUMP JUMPDEST DUP1 DUP5 ADD SWAP2 POP POP SWAP3 SWAP2 POP POP JUMP JUMPDEST PUSH1 0x0 PUSH2 0xFB1 DUP3 DUP6 PUSH2 0xF1D JUMP JUMPDEST PUSH1 0x1 DUP3 ADD SWAP2 POP PUSH2 0xFC1 DUP3 DUP5 PUSH2 0xF74 JUMP JUMPDEST SWAP2 POP DUP2 SWAP1 POP SWAP4 SWAP3 POP POP POP JUMP JUMPDEST PUSH32 0x4E487B7100000000000000000000000000000000000000000000000000000000 PUSH1 0x0 MSTORE PUSH1 0x11 PUSH1 0x4 MSTORE PUSH1 0x24 PUSH1 0x0 REVERT JUMPDEST PUSH1 0x0 PUSH2 0x1007 DUP3 PUSH2 0xCCC JUMP JUMPDEST SWAP2 POP PUSH32 0xFFFFFFFFFFFFFFFFFFFFFFFFFFFFFFFFFFFFFFFFFFFFFFFFFFFFFFFFFFFFFFFF DUP3 SUB PUSH2 0x1039 JUMPI PUSH2 0x1038 PUSH2 0xFCD JUMP JUMPDEST JUMPDEST PUSH1 0x1 DUP3 ADD SWAP1 POP SWAP2 SWAP1 POP JUMP JUMPDEST PUSH1 0x0 PUSH1 0x20 DUP3 ADD SWAP1 POP PUSH2 0x1059 PUSH1 0x0 DUP4 ADD DUP5 PUSH2 0xD48 JUMP JUMPDEST SWAP3 SWAP2 POP POP JUMP JUMPDEST PUSH1 0x0 PUSH2 0x106A DUP3 PUSH2 0xCCC JUMP JUMPDEST SWAP2 POP PUSH2 0x1075 DUP4 PUSH2 0xCCC JUMP JUMPDEST SWAP3 POP DUP3 DUP3 SUB SWAP1 POP DUP2 DUP2 GT ISZERO PUSH2 0x108D JUMPI PUSH2 0x108C PUSH2 0xFCD JUMP JUMPDEST JUMPDEST SWAP3 SWAP2 POP POP JUMP JUMPDEST PUSH32 0x4E487B7100000000000000000000000000000000000000000000000000000000 PUSH1 0x0 MSTORE PUSH1 0x32 PUSH1 0x4 MSTORE PUSH1 0x24 PUSH1 0x0 REVERT JUMPDEST PUSH32 0x53652072657175696572656E20646F73206A756761646F726573207061726120 PUSH1 0x0 DUP3 ADD MSTORE PUSH32 0x6C6120666173652064652052657665616C2E0000000000000000000000000000 PUSH1 0x20 DUP3 ADD MSTORE POP JUMP JUMPDEST PUSH1 0x0 PUSH2 0x111E PUSH1 0x32 DUP4 PUSH2 0xDB7 JUMP JUMPDEST SWAP2 POP PUSH2 0x1129 DUP3 PUSH2 0x10C2 JUMP JUMPDEST PUSH1 0x40 DUP3 ADD SWAP1 POP SWAP2 SWAP1 POP JUMP JUMPDEST PUSH1 0x0 PUSH1 0x20 DUP3 ADD SWAP1 POP DUP2 DUP2 SUB PUSH1 0x0 DUP4 ADD MSTORE PUSH2 0x114D DUP2 PUSH2 0x1111 JUMP JUMPDEST SWAP1 POP SWAP2 SWAP1 POP JUMP JUMPDEST PUSH32 0x4C6120732079207320696E6772657361646173207061726120656C204A756761 PUSH1 0x0 DUP3 ADD MSTORE PUSH32 0x646F722031206E6F20636F696E636964656E20636F6E20656C20636F6D70726F PUSH1 0x20 DUP3 ADD MSTORE PUSH32 0x6D69736F2E000000000000000000000000000000000000000000000000000000 PUSH1 0x40 DUP3 ADD MSTORE POP JUMP JUMPDEST PUSH1 0x0 PUSH2 0x11D6 PUSH1 0x45 DUP4 PUSH2 0xDB7 JUMP JUMPDEST SWAP2 POP PUSH2 0x11E1 DUP3 PUSH2 0x1154 JUMP JUMPDEST PUSH1 0x60 DUP3 ADD SWAP1 POP SWAP2 SWAP1 POP JUMP JUMPDEST PUSH1 0x0 PUSH1 0x20 DUP3 ADD SWAP1 POP DUP2 DUP2 SUB PUSH1 0x0 DUP4 ADD MSTORE PUSH2 0x1205 DUP2 PUSH2 0x11C9 JUMP JUMPDEST SWAP1 POP SWAP2 SWAP1 POP JUMP JUMPDEST PUSH32 0x4C6120732079207320696E6772657361646173207061726120656C204A756761 PUSH1 0x0 DUP3 ADD MSTORE PUSH32 0x646F722032206E6F20636F696E636964656E20636F6E20656C20636F6D70726F PUSH1 0x20 DUP3 ADD MSTORE PUSH32 0x6D69736F2E000000000000000000000000000000000000000000000000000000 PUSH1 0x40 DUP3 ADD MSTORE POP JUMP JUMPDEST PUSH1 0x0 PUSH2 0x128E PUSH1 0x45 DUP4 PUSH2 0xDB7 JUMP JUMPDEST SWAP2 POP PUSH2 0x1299 DUP3 PUSH2 0x120C JUMP JUMPDEST PUSH1 0x60 DUP3 ADD SWAP1 POP SWAP2 SWAP1 POP JUMP JUMPDEST PUSH1 0x0 PUSH1 0x20 DUP3 ADD SWAP1 POP DUP2 DUP2 SUB PUSH1 0x0 DUP4 ADD MSTORE PUSH2 0x12BD DUP2 PUSH2 0x1281 JUMP JUMPDEST SWAP1 POP SWAP2 SWAP1 POP JUMP JUMPDEST PUSH1 0x0 PUSH2 0x12CF DUP3 PUSH2 0xCCC JUMP JUMPDEST SWAP2 POP PUSH2 0x12DA DUP4 PUSH2 0xCCC JUMP JUMPDEST SWAP3 POP DUP3 DUP3 MUL PUSH2 0x12E8 DUP2 PUSH2 0xCCC JUMP JUMPDEST SWAP2 POP DUP3 DUP3 DIV DUP5 EQ DUP4 ISZERO OR PUSH2 0x12FF JUMPI PUSH2 0x12FE PUSH2 0xFCD JUMP JUMPDEST JUMPDEST POP SWAP3 SWAP2 POP POP JUMP JUMPDEST PUSH1 0x0 PUSH2 0x1311 DUP3 PUSH2 0xCCC JUMP JUMPDEST SWAP2 POP PUSH2 0x131C DUP4 PUSH2 0xCCC JUMP JUMPDEST SWAP3 POP DUP3 DUP3 ADD SWAP1 POP DUP1 DUP3 GT ISZERO PUSH2 0x1334 JUMPI PUSH2 0x1333 PUSH2 0xFCD JUMP JUMPDEST JUMPDEST SWAP3 SWAP2 POP POP JUMP JUMPDEST PUSH32 0x4E487B7100000000000000000000000000000000000000000000000000000000 PUSH1 0x0 MSTORE PUSH1 0x12 PUSH1 0x4 MSTORE PUSH1 0x24 PUSH1 0x0 REVERT JUMPDEST PUSH1 0x0 PUSH2 0x1374 DUP3 PUSH2 0xCCC JUMP JUMPDEST SWAP2 POP PUSH2 0x137F DUP4 PUSH2 0xCCC JUMP JUMPDEST SWAP3 POP DUP3 PUSH2 0x138F JUMPI PUSH2 0x138E PUSH2 0x133A JUMP JUMPDEST JUMPDEST DUP3 DUP3 DIV SWAP1 POP SWAP3 SWAP2 POP POP JUMP INVALID LOG2 PUSH5 0x6970667358 0x22 SLT KECCAK256 0xEE 0xDE STOP 0x2D 0xA7 0xC2 SWAP9 0x1E 0x49 CALLDATALOAD DUP12 SWAP7 0xEA SWAP2 0xB7 DUP11 JUMPI RETURNDATASIZE PUSH12 0x4C4CDE25278CC4B70EDC149C 0xEF PUSH5 0x736F6C6343 STOP ADDMOD SLT STOP CALLER "
		},
		"gasEstimates": {
			"creation": {
				"codeDepositCost": "1014400",
				"executionCost": "6060",
				"totalCost": "1020460"
			},
			"external": {
				"numPlayers()": "2495",
				"play(bool,string)": "infinite",
				"reveal(bool,string,bool,string)": "infinite",
				"revealer()": "2514",
				"rounds(uint256)": "infinite"
			}
		},
		"methodIdentifiers": {
			"numPlayers()": "97b2f556",
			"play(bool,string)": "015a0146",
			"reveal(bool,string,bool,string)": "59511080",
			"revealer()": "20b55a2d",
			"rounds(uint256)": "8c65c81f"
		}
	},
	"abi": [
		{
			"anonymous": false,
			"inputs": [
				{
					"indexed": true,
					"internalType": "address",
					"name": "player",
					"type": "address"
				},
				{
					"indexed": false,
					"internalType": "bytes32",
					"name": "commitment",
					"type": "bytes32"
				}
			],
			"name": "Play",
			"type": "event"
		},
		{
			"anonymous": false,
			"inputs": [
				{
					"indexed": true,
					"internalType": "address",
					"name": "winner",
					"type": "address"
				},
				{
					"indexed": false,
					"internalType": "uint256",
					"name": "reward",
					"type": "uint256"
				}
			],
			"name": "Reveal",
			"type": "event"
		},
		{
			"inputs": [],
			"name": "numPlayers",
			"outputs": [
				{
					"internalType": "uint256",
					"name": "",
					"type": "uint256"
				}
			],
			"stateMutability": "view",
			"type": "function"
		},
		{
			"inputs": [
				{
					"internalType": "bool",
					"name": "choice",
					"type": "bool"
				},
				{
					"internalType": "string",
					"name": "password",
					"type": "string"
				}
			],
			"name": "play",
			"outputs": [],
			"stateMutability": "payable",
			"type": "function"
		},
		{
			"inputs": [
				{
					"internalType": "bool",
					"name": "choice1",
					"type": "bool"
				},
				{
					"internalType": "string",
					"name": "password1",
					"type": "string"
				},
				{
					"internalType": "bool",
					"name": "choice2",
					"type": "bool"
				},
				{
					"internalType": "string",
					"name": "password2",
					"type": "string"
				}
			],
			"name": "reveal",
			"outputs": [],
			"stateMutability": "nonpayable",
			"type": "function"
		},
		{
			"inputs": [],
			"name": "revealer",
			"outputs": [
				{
					"internalType": "address payable",
					"name": "",
					"type": "address"
				}
			],
			"stateMutability": "view",
			"type": "function"
		},
		{
			"inputs": [
				{
					"internalType": "uint256",
					"name": "",
					"type": "uint256"
				}
			],
			"name": "rounds",
			"outputs": [
				{
					"internalType": "address payable",
					"name": "player",
					"type": "address"
				},
				{
					"internalType": "uint256",
					"name": "amount",
					"type": "uint256"
				},
				{
					"internalType": "bytes32",
					"name": "commitment",
					"type": "bytes32"
				},
				{
					"internalType": "uint256",
					"name": "gas",
					"type": "uint256"
				}
			],
			"stateMutability": "view",
			"type": "function"
		}
	]
}